{
  "_format": "hh-sol-artifact-1",
  "contractName": "UniswapV2Adapter",
  "sourceName": "contracts/UniswapV2Router.sol",
  "abi": [
    {
      "inputs": [
        {
          "internalType": "address",
          "name": "_router",
          "type": "address"
        },
        {
          "internalType": "address",
          "name": "_WETH",
          "type": "address"
        }
      ],
      "stateMutability": "nonpayable",
      "type": "constructor"
    },
    {
      "anonymous": false,
      "inputs": [
        {
          "indexed": true,
          "internalType": "address",
          "name": "user",
          "type": "address"
        },
        {
          "indexed": true,
          "internalType": "address",
          "name": "tokenA",
          "type": "address"
        },
        {
          "indexed": true,
          "internalType": "address",
          "name": "tokenB",
          "type": "address"
        },
        {
          "indexed": false,
          "internalType": "uint256",
          "name": "amountA",
          "type": "uint256"
        },
        {
          "indexed": false,
          "internalType": "uint256",
          "name": "amountB",
          "type": "uint256"
        },
        {
          "indexed": false,
          "internalType": "uint256",
          "name": "amountAMin",
          "type": "uint256"
        },
        {
          "indexed": false,
          "internalType": "uint256",
          "name": "amountBMin",
          "type": "uint256"
        },
        {
          "indexed": false,
          "internalType": "uint256",
          "name": "liquidity",
          "type": "uint256"
        }
      ],
      "name": "LiquidityAdded",
      "type": "event"
    },
    {
      "anonymous": false,
      "inputs": [
        {
          "indexed": true,
          "internalType": "address",
          "name": "user",
          "type": "address"
        },
        {
          "indexed": true,
          "internalType": "address",
          "name": "tokenIn",
          "type": "address"
        },
        {
          "indexed": true,
          "internalType": "address",
          "name": "tokenOut",
          "type": "address"
        },
        {
          "indexed": false,
          "internalType": "uint256",
          "name": "amountIn",
          "type": "uint256"
        },
        {
          "indexed": false,
          "internalType": "uint256",
          "name": "amountOutMin",
          "type": "uint256"
        }
      ],
      "name": "TokenSwapped",
      "type": "event"
    },
    {
      "inputs": [],
      "name": "SLIPPAGE_TOLERANCE",
      "outputs": [
        {
          "internalType": "uint256",
          "name": "",
          "type": "uint256"
        }
      ],
      "stateMutability": "view",
      "type": "function"
    },
    {
      "inputs": [],
      "name": "WETH",
      "outputs": [
        {
          "internalType": "address",
          "name": "",
          "type": "address"
        }
      ],
      "stateMutability": "view",
      "type": "function"
    },
    {
      "inputs": [
        {
          "internalType": "address",
          "name": "tokenA",
          "type": "address"
        },
        {
          "internalType": "address",
          "name": "tokenB",
          "type": "address"
        },
        {
          "internalType": "uint256",
          "name": "amountA",
          "type": "uint256"
        },
        {
          "internalType": "uint256",
          "name": "amountB",
          "type": "uint256"
        }
      ],
      "name": "addLiquidity",
      "outputs": [],
      "stateMutability": "nonpayable",
      "type": "function"
    },
    {
      "inputs": [
        {
          "internalType": "address",
          "name": "tokenIn",
          "type": "address"
        },
        {
          "internalType": "address",
          "name": "tokenOut",
          "type": "address"
        },
        {
          "internalType": "uint256",
          "name": "amountIn",
          "type": "uint256"
        }
      ],
      "name": "getQuote",
      "outputs": [
        {
          "internalType": "uint256",
          "name": "amountOut",
          "type": "uint256"
        }
      ],
      "stateMutability": "view",
      "type": "function"
    },
    {
      "inputs": [],
      "name": "router",
      "outputs": [
        {
          "internalType": "contract IUniswapV2Router02",
          "name": "",
          "type": "address"
        }
      ],
      "stateMutability": "view",
      "type": "function"
    },
    {
      "inputs": [
        {
          "internalType": "address",
          "name": "tokenIn",
          "type": "address"
        },
        {
          "internalType": "address",
          "name": "tokenOut",
          "type": "address"
        },
        {
          "internalType": "uint256",
          "name": "amountIn",
          "type": "uint256"
        },
        {
          "internalType": "uint256",
          "name": "minOut",
          "type": "uint256"
        }
      ],
      "name": "swapExactInput",
      "outputs": [],
      "stateMutability": "payable",
      "type": "function"
    }
  ],
  "bytecode": "0x60c06040523480156200001157600080fd5b50604051620019a7380380620019a7833981810160405281019062000037919062000183565b600073ffffffffffffffffffffffffffffffffffffffff168273ffffffffffffffffffffffffffffffffffffffff1603620000a9576040517f08c379a0000000000000000000000000000000000000000000000000000000008152600401620000a0906200022b565b60405180910390fd5b8173ffffffffffffffffffffffffffffffffffffffff1660808173ffffffffffffffffffffffffffffffffffffffff16815250508073ffffffffffffffffffffffffffffffffffffffff1660a08173ffffffffffffffffffffffffffffffffffffffff168152505050506200024d565b600080fd5b600073ffffffffffffffffffffffffffffffffffffffff82169050919050565b60006200014b826200011e565b9050919050565b6200015d816200013e565b81146200016957600080fd5b50565b6000815190506200017d8162000152565b92915050565b600080604083850312156200019d576200019c62000119565b5b6000620001ad858286016200016c565b9250506020620001c0858286016200016c565b9150509250929050565b600082825260208201905092915050565b7f496e76616c696420726f75746572206164647265737300000000000000000000600082015250565b600062000213601683620001ca565b91506200022082620001db565b602082019050919050565b60006020820190508181036000830152620002468162000204565b9050919050565b60805160a0516116ee620002b9600039600081816101640152818161039401526104d7015260008181610225015281816104290152818161052a015281816105d9015281816107f901528181610a3001528181610acf01528181610bad0152610cec01526116ee6000f3fe6080604052600436106100555760003560e01c80634c2037861461005a578063ad5c464814610085578063bd028142146100b0578063c515ee23146100cc578063cf6c62ea14610109578063f887ea4014610132575b600080fd5b34801561006657600080fd5b5061006f61015d565b60405161007c9190610d27565b60405180910390f35b34801561009157600080fd5b5061009a610162565b6040516100a79190610d83565b60405180910390f35b6100ca60048036038101906100c59190610e0a565b610186565b005b3480156100d857600080fd5b506100f360048036038101906100ee9190610e71565b610708565b6040516101009190610d27565b60405180910390f35b34801561011557600080fd5b50610130600480360381019061012b9190610e0a565b6108c1565b005b34801561013e57600080fd5b50610147610cea565b6040516101549190610f23565b60405180910390f35b606481565b7f000000000000000000000000000000000000000000000000000000000000000081565b8373ffffffffffffffffffffffffffffffffffffffff166323b872dd3330856040518463ffffffff1660e01b81526004016101c393929190610f3e565b6020604051808303816000875af11580156101e2573d6000803e3d6000fd5b505050506040513d601f19601f820116820180604052508101906102069190610fad565b508373ffffffffffffffffffffffffffffffffffffffff1663095ea7b37f0000000000000000000000000000000000000000000000000000000000000000846040518363ffffffff1660e01b8152600401610262929190610fda565b6020604051808303816000875af1158015610281573d6000803e3d6000fd5b505050506040513d601f19601f820116820180604052508101906102a59190610fad565b506000600267ffffffffffffffff8111156102c3576102c2611003565b5b6040519080825280602002602001820160405280156102f15781602001602082028036833780820191505090505b509050848160008151811061030957610308611032565b5b602002602001019073ffffffffffffffffffffffffffffffffffffffff16908173ffffffffffffffffffffffffffffffffffffffff1681525050838160018151811061035857610357611032565b5b602002602001019073ffffffffffffffffffffffffffffffffffffffff16908173ffffffffffffffffffffffffffffffffffffffff16815250507f000000000000000000000000000000000000000000000000000000000000000073ffffffffffffffffffffffffffffffffffffffff168573ffffffffffffffffffffffffffffffffffffffff16036104d557823414610427576040517f08c379a000000000000000000000000000000000000000000000000000000000815260040161041e906110be565b60405180910390fd5b7f000000000000000000000000000000000000000000000000000000000000000073ffffffffffffffffffffffffffffffffffffffff16637ff36ab534848433426040518663ffffffff1660e01b8152600401610487949392919061119c565b60006040518083038185885af11580156104a5573d6000803e3d6000fd5b50505050506040513d6000823e3d601f19601f820116820180604052508101906104cf9190611327565b50610683565b7f000000000000000000000000000000000000000000000000000000000000000073ffffffffffffffffffffffffffffffffffffffff168473ffffffffffffffffffffffffffffffffffffffff16036105d7577f000000000000000000000000000000000000000000000000000000000000000073ffffffffffffffffffffffffffffffffffffffff166318cbafe584848433426040518663ffffffff1660e01b8152600401610589959493929190611370565b6000604051808303816000875af11580156105a8573d6000803e3d6000fd5b505050506040513d6000823e3d601f19601f820116820180604052508101906105d19190611327565b50610682565b7f000000000000000000000000000000000000000000000000000000000000000073ffffffffffffffffffffffffffffffffffffffff166338ed173984848433426040518663ffffffff1660e01b8152600401610638959493929190611370565b6000604051808303816000875af1158015610657573d6000803e3d6000fd5b505050506040513d6000823e3d601f19601f820116820180604052508101906106809190611327565b505b5b8373ffffffffffffffffffffffffffffffffffffffff168573ffffffffffffffffffffffffffffffffffffffff163373ffffffffffffffffffffffffffffffffffffffff167fd36cc53ba71bc76a3db3364981f5296dd4ca5eba0e8c89874f2170515bd20d2486866040516106f99291906113ca565b60405180910390a45050505050565b600080600267ffffffffffffffff81111561072657610725611003565b5b6040519080825280602002602001820160405280156107545781602001602082028036833780820191505090505b509050848160008151811061076c5761076b611032565b5b602002602001019073ffffffffffffffffffffffffffffffffffffffff16908173ffffffffffffffffffffffffffffffffffffffff168152505083816001815181106107bb576107ba611032565b5b602002602001019073ffffffffffffffffffffffffffffffffffffffff16908173ffffffffffffffffffffffffffffffffffffffff168152505060007f000000000000000000000000000000000000000000000000000000000000000073ffffffffffffffffffffffffffffffffffffffff1663d06ca61f85846040518363ffffffff1660e01b81526004016108529291906113f3565b600060405180830381865afa15801561086f573d6000803e3d6000fd5b505050506040513d6000823e3d601f19601f820116820180604052508101906108989190611327565b9050806001815181106108ae576108ad611032565b5b6020026020010151925050509392505050565b6000821180156108d15750600081115b610910576040517f08c379a00000000000000000000000000000000000000000000000000000000081526004016109079061146f565b60405180910390fd5b8373ffffffffffffffffffffffffffffffffffffffff166323b872dd3330856040518463ffffffff1660e01b815260040161094d93929190610f3e565b6020604051808303816000875af115801561096c573d6000803e3d6000fd5b505050506040513d601f19601f820116820180604052508101906109909190610fad565b508273ffffffffffffffffffffffffffffffffffffffff166323b872dd3330846040518463ffffffff1660e01b81526004016109ce93929190610f3e565b6020604051808303816000875af11580156109ed573d6000803e3d6000fd5b505050506040513d601f19601f82011682018060405250810190610a119190610fad565b508373ffffffffffffffffffffffffffffffffffffffff1663095ea7b37f0000000000000000000000000000000000000000000000000000000000000000846040518363ffffffff1660e01b8152600401610a6d929190610fda565b6020604051808303816000875af1158015610a8c573d6000803e3d6000fd5b505050506040513d601f19601f82011682018060405250810190610ab09190610fad565b508273ffffffffffffffffffffffffffffffffffffffff1663095ea7b37f0000000000000000000000000000000000000000000000000000000000000000836040518363ffffffff1660e01b8152600401610b0c929190610fda565b6020604051808303816000875af1158015610b2b573d6000803e3d6000fd5b505050506040513d601f19601f82011682018060405250810190610b4f9190610fad565b5060006127106064612710610b6491906114be565b84610b6f91906114f2565b610b799190611563565b905060006127106064612710610b8f91906114be565b84610b9a91906114f2565b610ba49190611563565b905060008060007f000000000000000000000000000000000000000000000000000000000000000073ffffffffffffffffffffffffffffffffffffffff1663e8e337008a8a8a8a8a8a33426040518963ffffffff1660e01b8152600401610c12989796959493929190611594565b6060604051808303816000875af1158015610c31573d6000803e3d6000fd5b505050506040513d601f19601f82011682018060405250810190610c559190611612565b9250925092508773ffffffffffffffffffffffffffffffffffffffff168973ffffffffffffffffffffffffffffffffffffffff163373ffffffffffffffffffffffffffffffffffffffff167fd57a351e47392884c15dbc918a5a4e27752dbce5aa37999c5b556e8b76d1e00986868a8a88604051610cd7959493929190611665565b60405180910390a4505050505050505050565b7f000000000000000000000000000000000000000000000000000000000000000081565b6000819050919050565b610d2181610d0e565b82525050565b6000602082019050610d3c6000830184610d18565b92915050565b600073ffffffffffffffffffffffffffffffffffffffff82169050919050565b6000610d6d82610d42565b9050919050565b610d7d81610d62565b82525050565b6000602082019050610d986000830184610d74565b92915050565b6000604051905090565b600080fd5b600080fd5b610dbb81610d62565b8114610dc657600080fd5b50565b600081359050610dd881610db2565b92915050565b610de781610d0e565b8114610df257600080fd5b50565b600081359050610e0481610dde565b92915050565b60008060008060808587031215610e2457610e23610da8565b5b6000610e3287828801610dc9565b9450506020610e4387828801610dc9565b9350506040610e5487828801610df5565b9250506060610e6587828801610df5565b91505092959194509250565b600080600060608486031215610e8a57610e89610da8565b5b6000610e9886828701610dc9565b9350506020610ea986828701610dc9565b9250506040610eba86828701610df5565b9150509250925092565b6000819050919050565b6000610ee9610ee4610edf84610d42565b610ec4565b610d42565b9050919050565b6000610efb82610ece565b9050919050565b6000610f0d82610ef0565b9050919050565b610f1d81610f02565b82525050565b6000602082019050610f386000830184610f14565b92915050565b6000606082019050610f536000830186610d74565b610f606020830185610d74565b610f6d6040830184610d18565b949350505050565b60008115159050919050565b610f8a81610f75565b8114610f9557600080fd5b50565b600081519050610fa781610f81565b92915050565b600060208284031215610fc357610fc2610da8565b5b6000610fd184828501610f98565b91505092915050565b6000604082019050610fef6000830185610d74565b610ffc6020830184610d18565b9392505050565b7f4e487b7100000000000000000000000000000000000000000000000000000000600052604160045260246000fd5b7f4e487b7100000000000000000000000000000000000000000000000000000000600052603260045260246000fd5b600082825260208201905092915050565b7f4554482073656e74206d757374206d6174636820616d6f756e74496e00000000600082015250565b60006110a8601c83611061565b91506110b382611072565b602082019050919050565b600060208201905081810360008301526110d78161109b565b9050919050565b600081519050919050565b600082825260208201905092915050565b6000819050602082019050919050565b61111381610d62565b82525050565b6000611125838361110a565b60208301905092915050565b6000602082019050919050565b6000611149826110de565b61115381856110e9565b935061115e836110fa565b8060005b8381101561118f5781516111768882611119565b975061118183611131565b925050600181019050611162565b5085935050505092915050565b60006080820190506111b16000830187610d18565b81810360208301526111c3818661113e565b90506111d26040830185610d74565b6111df6060830184610d18565b95945050505050565b600080fd5b6000601f19601f8301169050919050565b611207826111ed565b810181811067ffffffffffffffff8211171561122657611225611003565b5b80604052505050565b6000611239610d9e565b905061124582826111fe565b919050565b600067ffffffffffffffff82111561126557611264611003565b5b602082029050602081019050919050565b600080fd5b60008151905061128a81610dde565b92915050565b60006112a361129e8461124a565b61122f565b905080838252602082019050602084028301858111156112c6576112c5611276565b5b835b818110156112ef57806112db888261127b565b8452602084019350506020810190506112c8565b5050509392505050565b600082601f83011261130e5761130d6111e8565b5b815161131e848260208601611290565b91505092915050565b60006020828403121561133d5761133c610da8565b5b600082015167ffffffffffffffff81111561135b5761135a610dad565b5b611367848285016112f9565b91505092915050565b600060a0820190506113856000830188610d18565b6113926020830187610d18565b81810360408301526113a4818661113e565b90506113b36060830185610d74565b6113c06080830184610d18565b9695505050505050565b60006040820190506113df6000830185610d18565b6113ec6020830184610d18565b9392505050565b60006040820190506114086000830185610d18565b818103602083015261141a818461113e565b90509392505050565b7f496e76616c696420616d6f756e74730000000000000000000000000000000000600082015250565b6000611459600f83611061565b915061146482611423565b602082019050919050565b600060208201905081810360008301526114888161144c565b9050919050565b7f4e487b7100000000000000000000000000000000000000000000000000000000600052601160045260246000fd5b60006114c982610d0e565b91506114d483610d0e565b92508282039050818111156114ec576114eb61148f565b5b92915050565b60006114fd82610d0e565b915061150883610d0e565b925082820261151681610d0e565b9150828204841483151761152d5761152c61148f565b5b5092915050565b7f4e487b7100000000000000000000000000000000000000000000000000000000600052601260045260246000fd5b600061156e82610d0e565b915061157983610d0e565b92508261158957611588611534565b5b828204905092915050565b6000610100820190506115aa600083018b610d74565b6115b7602083018a610d74565b6115c46040830189610d18565b6115d16060830188610d18565b6115de6080830187610d18565b6115eb60a0830186610d18565b6115f860c0830185610d74565b61160560e0830184610d18565b9998505050505050505050565b60008060006060848603121561162b5761162a610da8565b5b60006116398682870161127b565b935050602061164a8682870161127b565b925050604061165b8682870161127b565b9150509250925092565b600060a08201905061167a6000830188610d18565b6116876020830187610d18565b6116946040830186610d18565b6116a16060830185610d18565b6116ae6080830184610d18565b969550505050505056fea2646970667358221220d9b5c5e5b167ae461ad67adbd47b5e85b8a48800c66d82d38d3f2db5e70712f664736f6c63430008140033",
  "linkReferences": {},
  "deployedLinkReferences": {}
}